:020000040800F2
:10000000C05200207D02000893580008114B0008E0
:1000100091580008E90A0008B575000800000000C2
:10002000000000000000000000000000C101000806
:10003000C91700080000000015020008896C0008BC
:10004000970200089702000897020008970200082C
:10005000970200089702000897020008970200081C
:10006000970200089702000897020008970200080C
:1000700041120008970200084D120008970200087C
:10008000591200086512000897020008F90A0008D2
:10009000ED0A00089702000897020008970200087E
:1000A00097020008970200089702000897020008CC
:1000B00097020008970200089702000897020008BC
:1000C00097020008970200089702000897020008AC
:1000D000970200085175000879750008970200081A
:1000E000970200089702000897020008970200088C
:1000F000970200089702000897020008970200087C
:10010000970200084D5D000897020008970200085A
:100110009702000897020008AD6D000897020008DA
:1001200097020008711200087D120008970200086B
:10013000970200089702000897020008110B0008B8
:10014000050B0008970200089702000897020008B4
:10015000970200089112000897020008A97500088C
:10016000970200089702000897020008970200080B
:10017000970200089702000897020008000000009C
:1001800097020008970200089702000897020008EB
:1001900097020008970200089702000897020008DB
:1001A000000000000000000097020008DFF80CD0FB
:1001B00000F00CFC0048004735950008C0520020B4
:1001C0002B4B19680868B0E8F04F80F30988BFF33B
:1001D0006F8F4FF0000080F311887047000000001F
:1001E00006480068006880F3088862B661B6BFF30D
:1001F0004F8FBFF36F8F00DF00BF00BF08ED00E03F
:10020000DFF80C00016841F470010160704700BF25
:1002100088ED00E0EFF30980BFF36F8F144B1A688D
:100220001EF0100F08BF20ED108A20E9F04F10607B
:1002300008B44FF0500080F31188BFF34F8FBFF325
:100240006F8F0AF017F94FF0000080F3118808BC97
:1002500019680868B0E8F04F1EF0100F08BFB0EC46
:10026000108A80F30988BFF36F8F704700BF00BF0B
:100270009C010020EFF3058070470000064880478E
:1002800006480047FEE7FEE7FEE7FEE7FEE7FEE77B
:10029000FEE7FEE7FEE7FEE7596D0008AD01000846
:1002A0002DE9F05F0546002092469B4688460646AB
:1002B000814640241BE0284641464746224600F03E
:1002C00030FA53465A46C01A914110D31146184687
:1002D000224600F017FA2D1A67EB01084F46224616
:1002E0000120002100F00EFA17EB00094E41201EFC
:1002F000A4F10104DFDC484631462A464346BDE806
:10030000F09F40EA01039B0703D009E008C9121FD0
:1003100008C0042AFAD203E011F8013B00F8013BBF
:10032000521EF9D27047D2B201E000F8012B491EEB
:10033000FBD270470022F6E710B513460A46044682
:100340001946FFF7F0FF204610BD2DE9FE4F80460D
:1003500081EA0300C00F0C46009021F0004123F019
:100360000045B8EB0200A94105D24046214690461F
:100370001C460B46024623F00040104347D0270D91
:10038000C7F30A00C3F30A510290401A01904028B3
:100390006BDAC3F3130040F4801B0098924620B13F
:1003A0000023D2EB030A63EB0B0B01985946C0F113
:1003B0004002504600F0A6F906460D465046594602
:1003C000019A00F0BEF910EB08006141002487EAB1
:1003D000115284EAE7731A4340D0009A62B3019A3B
:1003E000012A4FEA075215DC001B61EB02014FF0B6
:1003F000004202EA0752CDE90042001C41F580119B
:1004000032462B4600F0F5F903B0BDE8F08F4046C8
:100410002146F9E7001B61EB0201001C41F5801346
:1004200000185B412018A2F5001747EB030140EAD2
:10043000D570B6196D4111E06D084FEA360645EAF0
:10044000C0754FEA0752001B61EB0201001C41F529
:10045000801149084FEA30000019514132462B46BD
:1004600003B0BDE8F04F00F0B5B90098012240009C
:100470000023D0EB020263EBE073009821464FEAC1
:10048000E074B8EB000061EB0401E9E783F000439E
:100490005BE781F0004158E72DE9FE4F81EA030454
:1004A00004F0004421F0004100944FF0000B23F0D1
:1004B000004350EA01045ED052EA03045BD0C3F368
:1004C0000A54C1F30A552C44A4F2F3340194A0FB5E
:1004D0000254C1F3130141F48011C3F3130343F435
:1004E000801301FB024400FB034E840A970A44EA8E
:1004F000815447EA8357A4FB076802958D0A05FBE0
:1005000007854FEA932C04FB0C542705029D4FEA04
:10051000065847EA1637B5EB08056EEB070C870E51
:10052000920E47EA811742EA8312A7FB0201B6EB5B
:100530000B0164EB00042B0D43EA0C335E1844EB13
:100540001C50DA465146E7FB0201C5F313044FEA9B
:100550000B3343EA14534FEA0432019C43EA060387
:10056000A4F10C040294009CCDE900B400F041F920
:1005700003B0BDE8F08F00200146F9E7F0B4CA17D8
:10058000CB0F50405140C61841F100054FEAC372ED
:10059000314628004FF0960303D0B623F0BC00F09C
:1005A000EBB830460021F9E70EB5C10F80EAE070E4
:1005B0000844CA07002140F233438DE80E000A4682
:1005C0000B4600F016F903B000BD3EB5CA17CB0FBD
:1005D000002450405140C0186141DA0740F23343D3
:1005E0000094CDE901232246234600F002F903B02E
:1005F00030BD70B5C1F30A5201F000450024C1F3CB
:10060000130140F2FF3341F480119A4201DA0020D5
:1006100070BD40F233439A42A2F2334203DC5242AD
:1006200000F07FF800E090402C43F1D0404270BDD4
:1006300070B5C1F30A5201F000450024C1F3130163
:1006400040F2FF3341F480119A4202DA0020014661
:1006500070BD40F233439A42A2F2334203DC52426D
:1006600000F05FF801E000F04DF82C43F0D00023DB
:10067000D0EB030063EB010170BD00F0004230F0ED
:1006800000400AD0C10D01F56071C0F3160042EAC6
:100690000151C208400711437047002001467047CE
:1006A00001F0004330B421F0004150EA010206D0CD
:1006B0000A0DA2F56072C1F31301002A02DC30BCFE
:1006C00000207047440F44EAC104C100E01830BC68
:1006D00000EBC25000F047B830B50B460146002091
:1006E0002022012409E021FA02F59D4205D303FAF4
:1006F00002F5491B04FA02F52844151EA2F1010275
:10070000F1DC30BD202A04DB203A00FA02F100209F
:1007100070479140C2F1200320FA03F3194390403F
:100720007047202A04DB203A21FA02F000217047AA
:1007300021FA02F3D040C2F1200291400843194649
:100740007047202A06DBCB17203A41FA02F043EA31
:10075000E07306E041FA02F3D040C2F1200291407A
:100760000843194670470029A8BF7047401C49003C
:1007700008BF20F00100704710B4B0FA80FC00FA06
:100780000CF050EA010404BF10BC704749B1CCF131
:10079000200421FA04F411FA0CF118BF01212143BD
:1007A0000843A3EB0C01CB1D4FEA00614FEA102078
:1007B00042BF002010BC704700EBC350104400291A
:1007C000A4BF10BC7047401C490008BF20F00100C6
:1007D00010BC704710B5141E73F1000408DA401CF9
:1007E00041F1000192185B411A4301D120F0010050
:1007F00010BD2DE9F04D92469B4611B1B1FA81F240
:1008000002E0B0FA80F220329046FFF77BFF044608
:100810000F4640EA0A0041EA0B0153465A46084394
:1008200013D0114653EA010019D0C8F140025046D6
:10083000FFF777FF05460E46504659464246FFF7FA
:1008400061FF084305D0012004E020463946BDE899
:10085000F08D0020054346EAE0762C4337430A98A2
:100860006305E40AA0EB08000022FD0A44EA4754AD
:100870000A3002D500200146E9E701051019694157
:10088000DDE9084500196941BDE8F04DA2E72DE911
:10089000F04D81EA030404F0004B21F000451446BA
:1008A0004FF0000A23F0004150EA050220D054EA3C
:1008B00001021DD0C5F30A570246C5F31303C1F365
:1008C0001300C1F30A5640F4801543F48013A7EBDC
:1008D0000608101BD64608F2FD3873EB050002D35C
:1008E00008F1010801E092185B41B8F1000F03DA4A
:1008F00000200146BDE8F08D00204FF4801106462F
:1009000084460EE0171B73EB050705D3121B63EB40
:10091000050306434CEA010C49084FEA30009218DF
:100920005B4150EA0107EDD152EA030012D082EA9E
:10093000040083EA0501084305D0101BAB4106D231
:100940000122002306E000224FF0004302E06FF096
:10095000010253101AEB06004CEB085110EB0A0091
:1009600041EB0B01BDE8F04DFFF734BFC1F30A5274
:10097000C1F3130140F2FF3341F480119A4202DACD
:1009800000200146704740F233439A42A2F23342BC
:1009900002DC5242FFF7C5BEFFF7B4BE30B5041EFD
:1009A00071F1000404DB4FF00044404264EB0101AC
:1009B000141E73F1000405DB1C464FF00043524245
:1009C00063EB0403994208BF904230BD064C074DCB
:1009D00006E0E06840F0010394E80700984710340F
:1009E000AC42F6D3FFF7E6FB44B0000864B0000861
:1009F0002DE9F04D00231A461B1A8A4103DB002023
:100A00000146BDE8F08DC1F30A52C1F3130141F470
:100A100080154FF0000BD10702D100186D41521E16
:100A20000027044640F2FF11384601EB620A3E46B9
:100A30008046024600204FF48011FFF772FEC21973
:100A40007141BB1846EB0100B4EB030C75EB000CD5
:100A500004D3E41A65EB000517460E46241908F185
:100A600001006D4180463428E3DDF91946EB0600AC
:100A7000091BA84103D24FF0FF32134601E00022C8
:100A800013461BEB070046EB0A51BDE8F04DFFF79C
:100A9000A1BE70B58C1810F8015B15F0070301D1E9
:100AA00010F8013B2A1106D110F8012B03E010F8D1
:100AB000016B01F8016B5B1EF9D12B0705D40023F4
:100AC000521E0DD401F8013BFAE710F8013BCB1A96
:100AD000921C03E013F8015B01F8015B521EF9D58B
:100AE000A142D8D3002070BDFEE70000014801F00C
:100AF0004DB9000018020020014801F047B900007C
:100B000018020020014801F041B900004002002015
:100B1000014801F03BB9000040020020F0B5074653
:100B200000681449002401250E2695B088420DD195
:100B30000494CDE908560594019402940094694602
:100B40000D480394CDE9064501F01CF80B493868BF
:100B500088420DD1CDE90E4612950B940C940A945F
:100B60000AA9074813960D94CDE9104501F00AF83B
:100B700015B0F0BD0064004018020020006800407D
:100B80004002002010B50B4801F000FC022109488A
:100B900000F080FF0748FFF7C1FF074801F0F6FBB0
:100BA0000221054800F076FFBDE810400248FFF73B
:100BB000B5BF0000180200204002002030B589B007
:100BC000082506950C9C002502900595080A8DF8CD
:100BD00000008DF80110100A8DF80200180A8DF837
:100BE00004008DF80530200A8DF806008DF80320EA
:100BF00004958DF8074001236A4602A9024800F0D7
:100C00005DFF09B030BD00001802002030B589B08A
:100C1000082506950C9C002502900595080A8DF87C
:100C200000008DF80110100A8DF80200180A8DF8E6
:100C300004008DF80530200A8DF806008DF8032099
:100C400004958DF8074001236A4602A9024800F086
:100C500035FF09B030BD0000400200201D489FED67
:100C60001C0ADFED1E0A80ED000A9FED1B0AB2EEA2
:100C7000041A80ED010A80ED020AC0ED090A2C3841
:100C8000144A80ED001A80ED010A80ED020AC0EDE1
:100C9000090A0020DFED120A9FED121ADFED121A89
:100CA000B1EE002ADC3A00BF00EB400101EBC001CD
:100CB00002EB8101401C81ED002AC1ED010A81EDAA
:100CC000020A81ED081AC1ED091A0428ECDB70470D
:100CD0000000C842300B00200000000000409C458E
:100CE000CDCCCC3D00803B4500401C462DE9F04773
:100CF000634F644E2DED0A8B786801282FD162482E
:100D0000624DDFF88C8100249FED628ADFED628AFC
:100D100090ED000B51EC100BFFF7C2FC95ED000BB2
:100D2000814651EC100BFFF7BBFC98ED000B05461C
:100D300051EC100BFFF7B4FC4FEA000204EB440146
:100D400001EBC40106EB8101641CC1F80090C1E90C
:100D5000015281ED088AC1ED098A042CEEDB494D70
:100D60000024403D05EB840005EB44014069B1F9E6
:100D70000A10401A00EE100A04EB440000EBC40015
:100D8000B8EEC00A06EB800080ED060A04F092FD82
:100D9000641C042CE6DBD6ED2B9AB0EEE90A10EECB
:100DA000100AFFF76AFC96ED209A41EC1C0BB0EE9E
:100DB000C90A10EE100AFFF760FCD6ED158A41EC67
:100DC0001B0BB0EEE80A10EE100AFFF756FC96ED8A
:100DD0000A8A41EC1A0BB0EEC80A10EE100AFFF7AF
:100DE0004CFC53EC1A2BFFF7B0FA53EC1B2BFFF71C
:100DF000ACFA53EC1C2BFFF7A8FAFFF751FC00EEFE
:100E0000100A264910EE100A85ED0F0A88421FDDF0
:100E10009FED231AC1EE000AC7ED040A28EE200A4E
:100E2000BDEEC00A10EE100A28EEA00AA886BDEE9C
:100E3000C00A10EE100A29EE200AE886BDEEC00AAC
:100E400010EE100A29EEA00A2887BDEEC00A10E0B5
:100E5000BDEEC80A10EE100ABDEEE80AA88610EE34
:100E6000100ABDEEC90AE88610EE100ABDEEE90AC6
:100E7000288710EE100A6887BDEC0A8BBDE8F08762
:100E8000BC000020540A002020010020280100207E
:100E90003001002000803B4500401C4600803B465E
:100EA00000803B4670B5344E344CB068012841D1C7
:100EB000334890ED000B51EC100BFFF7F1FB206075
:100EC000304890ED000B51EC100BFFF7E9FB606030
:100ED0002D4890ED000B51EC100BFFF7E1FBA060EB
:100EE0002A4890ED000B51EC100BFFF7D9FB606224
:100EF000274890ED000B51EC100BFFF7D1FBA4F14C
:100F00002C052860234890ED000B51EC100BFFF7E7
:100F1000C7FB6860204890ED000B51EC100BFFF709
:100F2000BFFBA8601D4890ED000B51EC100BFFF7C4
:100F3000B7FB6862F0681A4D012805D0022802D17B
:100F40004EF69000A88070BD16483168DFED160A95
:100F50004068081A00EE100A0848B8EEC00A20EEF1
:100F6000200A84ED060A04F0A5FC94ED0A0ABDEE01
:100F7000C00A10EE100AE5E7BC000020300B00208C
:100F8000200100202801002030010020380100202D
:100F9000400100204801002050010020580100209D
:100FA000140A00205C0B00200000343D0448017A44
:100FB0000448012902D00121C16070470221FBE7EA
:100FC000E00C0020BC0000200348417A03480129BE
:100FD00000D0002101617047E00C0020DC000020FF
:100FE00070B50C46054664A100F006F918B120461C
:100FF00008F0E8FAB9E061A1284600F0FDF818B160
:10100000204608F013FBB0E05DA1284600F0F4F89C
:1010100018B1204608F03EFBA7E05AA1284600F090
:10102000EBF818B1204608F05DFB9EE056A128467B
:1010300000F0E2F80028DDD154A1284600F0DCF8E9
:101040000028D7D152A1284600F0D6F80028D1D1E7
:1010500050A1284600F0D0F80028CBD14EA1284658
:1010600000F0CAF80028C5D14CA1284600F0C4F809
:1010700000287AD14AA1284600F0BEF8002874D191
:1010800048A1284600F0B8F800286ED146A12846AD
:1010900000F0B2F8002868D144A1284600F0ACF86E
:1010A000002862D142A1284600F0A6F800285CD1B1
:1010B00040A1284600F0A0F8002856D13EA12846BD
:1010C00000F09AF8002850D13CA1284600F094F88E
:1010D00000284AD13AA1284600F08EF8002844D1D1
:1010E00038A1284600F088F800283ED136A12846CD
:1010F00000F082F8C8BB35A1284600F07DF8A0BBFF
:1011000033A1284600F078F878BB32A1284600F0D9
:1011100073F850BB30A1284600F06EF810B108F00B
:101120001BF822E02DA1284600F066F8E8B92CA1B2
:10113000284600F061F8C0B92AA1284600F05CF802
:1011400098B929A1284600F057F870B927A1284678
:1011500000F052F848B926A1284600F04DF820B911
:1011600024A1284600F048F808B1002070BD2146AF
:10117000284607F073FEF8E72A3100002A32000003
:101180002A3300002A3400002A3500002A360000E5
:101190002A3700002A3800002A39000023310000D5
:1011A00023320000233300002334000023350000E5
:1011B0002336000040310000403200004033000080
:1011C0004034000040350000403600004037000049
:1011D0004038000040390000243100002432000073
:1011E000243300002434000024360000243700009B
:1011F000243800002439000030B50C46054605F0BF
:10120000EDFC0346204605F0E9FC83420AD10020AC
:1012100004E0295C225C914204D1401C9842F8DB36
:10122000012030BD002030BD0022835C23B18B54EF
:10123000521C642AF9DB00E08B5401207047000047
:10124000014801F02FB9000028070020014801F0F3
:1012500029B9000088070020014801F023B90000E7
:1012600068060020014801F01DB90000C8060020F2
:10127000014801F017B90000E807002010B5034845
:1012800001F010F9BDE8104000F0ACBA08060020EB
:10129000014801F007B90000480800200168182340
:1012A000CAB2103AB2FBF3F2054B6FF30901032AFD
:1012B0009B5CC36500D9091D816508467047000025
:1012C000ECAE000810B5014600208B698A6A4FF029
:1012D000C07453B1B3F5005F15D072B1012A0CD0C0
:1012E000022A0AD0032A09D104E01AB1012A06D041
:1012F000022A03D1C96AC90100D5012010BDC96AFB
:10130000A142FAD010BD002AF7D0012AF2D0022A59
:10131000F3D0032AF3D010BD30B50468256825F456
:1013200080252560046863608368402B036803D0D0
:1013300099600068C26030BD9A600068C16030BDCD
:1013400030B5214841F288340146438AB1F9001092
:10135000624263B1B0F90230CB1AA34202DD058AC2
:101360006D1E0582934202DA038A5B1C0382418070
:1013700001234382B0F9105001EB45314160816097
:1013800012490968022905D141F28E2101EB45314C
:101390000F4D29600C49058EB1F91C1065B1B0F9EB
:1013A0001E504D1BA54202DDC46A641EC4629542F4
:1013B00002DAC26A521CC262C1830386C26A01EBAE
:1013C00042310162416230BD5C0B0020C800002048
:1013D000BC00002070B5354D354C4FF00001688AD7
:1013E000420603D5218041F2883109E0020603D587
:1013F00021804FF4FA6103E0C10702D04FF4FA51A3
:101400006180810702D54EF2C0016180410702D59B
:101410004EF6900103E0010702D541F27071218080
:1014200010F0410F03D1010601D4810718D5C00681
:1014300005D56088E0801F4808F0B4FD13E01D4822
:1014400008F0B0FDB4F9020000EE900AF8EEE00AF0
:1014500020EE200ABDEEC00A10EE100AE08002E085
:10146000144808F0BBFD688A10F00C0F19D0C006B4
:1014700006D52088A080BDE870400F4808F092BDD6
:101480000D4808F08FFDB4F9000000EE900AF8EE68
:10149000E00A20EE200ABDEEC00A10EE100AA0807D
:1014A00070BDBDE87040044808F098BDE00C002015
:1014B000581100200C0100200001002070B5574891
:1014C0002DED028BB0F90200404200EE100AB8EE9A
:1014D000C00ADFED530A60EE200A9FED521A52480F
:1014E00041F26B2180EE810A4068081A00EE900AF2
:1014F000F8EEE00A9FED4D1A4D4D4E4800EE810A80
:1015000085ED050A0068002869DD4B4A4B48DFED90
:101510004C0AB2F9043001884088EE68494CB2F9AF
:101520000620A0F58060A1F58061012E5AD0022E20
:1015300055D101EE103AF8EEC11A01EE101AB8EECC
:10154000C11A41EE201ABDEEE11A11EE101A01EE99
:10155000102AE180F8EEC11A01EE100AB8EEC11AA5
:1015600041EE201AFDEEE10A10EE900A208106F00D
:10157000C7FDB4F9080000EE900AF8EEE00A20EE8C
:10158000208A95ED050A06F013FDB4F9060000EE79
:10159000900AF8EEE00A00EE808ABDEEC80A10EE6E
:1015A000100A208095ED050A06F002FDB4F9080046
:1015B00000EE900AF8EEE00A20EE208A95ED050A8A
:1015C00006F09EFDB4F9060000EE900AF8EEE00A7F
:1015D00000EEC08ABDEEC80A10EE100A6080BDECB5
:1015E000028B70BD00EE103AB8EEC01A00EE101A71
:1015F000B8EEC00A00EE201ABDEEC10A10EE101AB5
:1016000000EE102A2180B8EEC01A00EE100AB8EEE3
:10161000C00A00EE201ABDEEC10ADDE72C00002052
:101620000998443E0080BB455C0B0020D40F493A2A
:10163000BC000020FC00002058110020E00C00201D
:1016400085EB4141140A002070B518480146036833
:10165000B1F92220C3B1B0F9201041F28834511AF7
:10166000A14206DDD0E90445641E45F1FF35C0E91D
:10167000044541F28834E14206DAD0E90414491CF9
:1016800044F10004C0E904140284D0E90454640362
:1016900044EAD544D1176D0352196141C0E90621CE
:1016A0000BB9C0E902210121016070BDB00C00201E
:1016B0002DE9F04781460027012605F08FFA051E27
:1016C00034D00024DFF868802DE0621C21464846B3
:1016D00005F08CFA17A1FFF78FFD88B12246394635
:1016E000484605F083FA05F0DFF910EE100AFEF720
:1016F000C4FF08EBC602671CC2E90001761C11E0BA
:10170000281B01280ED12A463946484605F06EFAB4
:1017100005F0CAF910EE100AFEF7AFFF08EBC6029B
:10172000C2E90001641CAC42CFDB3046BDE8F08763
:10173000380E00202000000070B52149214B2828D8
:101740000A780BD012B19854521C0A7029280BD178
:101750000024D0B225461C540C700BE0002AF2D1B4
:10176000282018700120087070BD5819407858550D
:101770006D1CEDB2134805F031FA401EA842F4DCAE
:10178000104805F02BFA18440E4A00F8024C503A63
:10179000A2F114010B4804F0E1FF0A485038FFF7AA
:1017A00087FF014607486438FFF71AFC0549002007
:1017B00050390C54401CC0B26428FAD370BD0000EC
:1017C000180100206C0D0020704770470246002071
:1017D000431E115C202904D011B1401C6428F8DBA1
:1017E00018467047F8B5334991F80CE0BEF1020F86
:1017F00059D24F7B022F56D22F480268521C0260EA
:101800000888C0F30A03A1F1140003804A78D408C1
:101810008A7844EA4214C4F30A054580CC789209D8
:1018200042EA84040A7944EA8224C4F30A048480E4
:101830004E79520842EAC612C2F30A024FEA961CD7
:10184000C28080F808C0C6F301164672CE88468171
:101850000E8986814E89C68180F810E04774C98957
:101860004182B3F5806100D549424FF480660A2970
:1018700000DC33460380B5F5806100D549420A2972
:1018800000DC35464580B4F5806100D549420A291F
:1018900000DC34468480B2F5806100D549420A29D3
:1018A00000DD1646C6800548006801684068009063
:1018B000F8BD0000F40C0020FC000020080500200A
:1018C0002C480068002853DD2B49DFED2C0A9FEDE2
:1018D0002C1AC888A0F5806000EE100AB1F90C003F
:1018E000B8EEC00A20EE200A00EE900A2548F8EE75
:1018F000E00A00EE810AD0ED0D0A70EE200AC0ED7C
:101900000D0A90ED0F0AB8EEC01AF4EEC10AF1EE1E
:1019100010FA03DDB8EEC00A80ED0D0A90ED100A52
:10192000D0ED0D0AB8EEC01AF4EEC10AF1EE10FACD
:1019300003D2B8EEC00A80ED0D0A8A88DFED120AE4
:10194000C2F5806200EE102AB1F90A109FED0F1A5D
:10195000B8EEC00A20EE200A00EE901AF8EEE00A77
:1019600000EE810AD0ED060A30EE200A80ED060A6C
:1019700070470000FC000020E00C0020A69B443BC8
:10198000CDCC4C3E5C0B0020A69BC43A8FC275BCEC
:101990001148B0F91C10B1F57A6F08DD42F6C41198
:1019A000C16342F6A201816342F2087107E040F68A
:1019B000C411C16340F6A20181634FF4E161016487
:1019C00090ED0E0AB8EEC00A80ED0D0A9FED030AF5
:1019D00080ED060A704700005C0B0020000000004C
:1019E0002248B3EE040ADFED230A80ED000A9FEDE2
:1019F000200A80ED010A80ED020A80ED080AC0EDA0
:101A0000090ADFED1D0A2C38C0ED000AF6EE000AC7
:101A1000C0ED010ADFED190A80ED020AC0ED080AE7
:101A2000DFED170AC0ED090A2C38F2EE080AC0ED06
:101A3000000A80ED010A80ED020ADFED120A80ED56
:101A4000080AC0ED090ADFED100A2C38C0ED000AC3
:101A500080ED010A80ED020A9FED0C0A80ED080A74
:101A60009FED0B0A80ED090A70470000280C00204A
:101A70000000000000007A430000204200803B4547
:101A800000409C450000FA430000164300007A44E1
:101A900000606A4690F82020012A09D090F82020A2
:101AA000022A05D0416A41F4802141620120704739
:101AB000006842690A43426100207047F0B590F81F
:101AC0002040012C07D090F82040022C03D0416A1E
:101AD00041F4802153E00468A5686D0105D4A56830
:101AE0002D0102D4A568ED0046D5A4680125C4F3F4
:101AF0000164A5401D608D684FF4C0739DB1CE6830
:101B000035434E6845EAC605066803EB0417F551F0
:101B10004FF4C275076805EB04150E697E51097D07
:101B2000012905D009E00E88CD6845EA4655EBE766
:101B300001684E5946F480764E511179D2F805501D
:101B40004FF4C67641EA0521056806EB0416A95153
:101B50001178D2F801204FF4C47541EA02210268DD
:101B600005EB04155151006803EB0411425842F093
:101B7000010242500020F0BD416A41F4001141626F
:101B80000120F0BD10B590F82020012A09D090F86E
:101B90002020022A05D0416A41F4802141620120BF
:101BA00010BD3A48D0F8002242F00102C0F80022ED
:101BB000D0F8002222F47C52C0F80022D0F8002293
:101BC0004B6A42EA0322C0F800220B7D01229A40B0
:101BD000D0F81C329343C0F81C32CB69B3B9D0F8AB
:101BE0000C329343C0F80C328C894B6864F31F436A
:101BF0004C6900EBC404C4F840320C890B6864F3F0
:101C00001F434C6900EBC404C4F84432CB69012B78
:101C100016D1D0F80C321343C0F80C320C884B6844
:101C200064F31F434C6900EBC404C4F840320C89D0
:101C3000CB6864F31F434C6900EBC404C4F844321E
:101C40008B69002BD0F804320ED01343C0F8043255
:101C50000B69002BD0F8143208D01343C0F81432AB
:101C6000096A012904D008E09343EFE79343F5E7BD
:101C7000D0F81C121143C0F81C12D0F8001221F049
:101C80000101C0F80012002010BD000000640040F7
:101C9000704730B590F82040012C07D090F82040D4
:101CA000022C03D0416A41F4802109E011B10129DD
:101CB00009D00CE00468E46807E0416A41F40011CF
:101CC0004162012030BD04682469A407F5D04FF4B7
:101CD000D874056804EB01142D5915F004059560BE
:101CE00005682D5942D0ED08556005682C59C4F39C
:101CF0004004D4604FF4DA74056804EB01142D59E4
:101D000005F00F05156105682D59C5F30725956187
:101D100005682C59240C54614FF4DC72046802EB02
:101D20000112A4581C700468A458240A5C7004684A
:101D3000A458240C9C700468A258120EDA704FF458
:101D4000DE72046802EB0112A4581C710468A458E6
:101D5000240A5C710468A458240C9C710468A2587D
:101D6000120EDA7129B1012909D00DE06D0D15604F
:101D7000BBE70068C16841F02001C16004E0006871
:101D8000016941F020010161002030BD2DE9F05FC3
:101D90000546006800244669D0F804908768D0F8AA
:101DA0000CB0D0F810A0D0F81880F10748D0F9078F
:101DB00014D001218160B80703D5284600F013FB39
:101DC0000CE0780702D54FF4006407E0380702D52D
:101DD0004FF4805402E0284600F004FBF80516D5C5
:101DE00029684FF480708860B80503D5284600F054
:101DF000FCFA0CE0780502D544F4005407E03805FD
:101E000002D544F4804402E0284600F0EDFAF803DD
:101E100016D529684FF480308860B80303D528466A
:101E200000F0E5FA0CE0780302D544F4004407E042
:101E3000380302D544F4803402E0284600F0D6FA94
:101E4000300707D55FEACB6004D52968102044F439
:101E50000074C86070074FF0080707D55FEA0B7081
:101E600004D52868C760284600F0AAF9B00706D54F
:101E70002868C068800702D0284600F0A3F97006E1
:101E800007D55FEACA6004D52968102044F480644D
:101E90000861B00607D55FEA0A7004D528680761B3
:101EA000284600F06FFAF00606D52868006980071A
:101EB00002D0284600F067FAB00308D55FEAC9608F
:101EC00005D5296810204860284600F05DFAF00327
:101ED00007D55FEA097004D528684760284600F0F6
:101EE00087FA300446D55FEA497040D5F00504D53D
:101EF0005FEAC87001D044F00104B00504D55FEA80
:101F0000887001D544F00204700504D55FEA48707A
:101F100001D544F00404300529D518F0700F26D0FF
:101F200008F07000402815D006DC102809D02028C1
:101F30000AD0302816D10AE050280ED0602811D1DE
:101F40000EE044F008040DE044F010040AE044F010
:101F5000200407E044F0400404E044F0800401E081
:101F600044F480742868816921F0700181612968D6
:101F700004204860002C05D0686A20436862284627
:101F8000FFF786FEBDE8F09F70B5040003D094F81B
:101F9000200010B104E0012070BD204600F082F85E
:101FA0002068016821F00201016000F017FD05467C
:101FB000052604E000F012FD401B0A2811D8206815
:101FC00040688007F6D42068016841F00101016093
:101FD00000F004FD05460BE000F000FD401B0A2860
:101FE00006D9606A40F40030606284F82060D2E76D
:101FF00020684068C007EFD0207E01282068016873
:102000003DD021F080010160607E012820680168D8
:1020100038D021F040010160A07E012820680168CD
:1020200033D021F020010160E07E012820680168A2
:102030002ED041F010010160207F01282068016846
:1020400029D021F008010160607F01282068016823
:1020500024D021F004010160D4E902010843D4E94D
:102060000412114308436168491E08432168C8618E
:1020700000206062012084F82000002070BD41F043
:102080008001C0E741F04001C5E741F02001CAE707
:1020900021F01001CFE741F00801D4E741F004013D
:1020A000D9E70000F0B587B0044614216846FEF772
:1020B00041F93E4B3E48DFF8F0E01968D4F800C023
:1020C0003B4A03250226092710300024491CF44509
:1020D0002AD11960012907D1016841F0007101601E
:1020E000006800F000700590106840F00800106073
:1020F0001068CDE9005600F00800CDE9047069468B
:102100002C48CDE9024500F079FB0022052113207F
:1021100000F0EEFC132000F0DFFC0022052114206B
:1021200000F0E6FC14203BE0DFF88CE0F44539D108
:10213000D0F800C04CF0806CC0F800C0D0F800C0EF
:1021400001290CF0806CCDF814C0196007D101682A
:1021500041F000710160006800F0007005901068A7
:1021600040F002001060106802AB00F00200059021
:102170004FF44050CDE9000683E8B00069460F48AF
:1021800000F03CFB002206213F2000F0B1FC3F2084
:1021900000F0A2FC00220621402000F0A9FC402013
:1021A00000F09AFC07B0F0BD006400400000002081
:1021B00030380240000C0240006800400004024039
:1021C00070470000F0B50746674C00686449654EEB
:1021D000251D95B088425DD110AB6A460021634849
:1021E000FFF757FD00996248A1F50072013A03D14B
:1021F000BDF8421049BA41810099A1F50072023A36
:1022000003D1BDF8421049BA81810099A1F500724D
:10221000033A03D1BDF8421049BAC1810099B1F522
:10222000017F7CD0A1F50071053903D1BDF84000D4
:1022300040BA30800098A0F50071063903D1BDF88E
:10224000400040BAB0830098A0F58061023921D1E6
:102250009DF8400020709DF8410060704248218840
:10226000103001809DF8421021709DF8431061707C
:10227000218841809DF8441029709DF845106970AF
:102280009DF84610A9709DF84710E97095ED000A79
:1022900080ED010A37493868884259D10EAB07AA48
:1022A00000213548FFF7F5FC0798A0F500710739C4
:1022B0000AD1BDF8380041BA30484184BDF83A101F
:1022C00049BA8184FFF7C0F90798A0F58061013908
:1022D0003ED19DF83800207023499DF83900607088
:1022E0000831B4F900200A809DF83A0020709DF86A
:1022F0003B006070B4F9000048809DF83C302B70C2
:102300009DF83D306B709DF83E30AB709DF83F30CE
:10231000EB7095ED000A81ED010A514200E019E0F1
:1023200000EE101ADFED160AB8EEC00A20EE200A01
:10233000BDEEC00A10EE101A00EE100A3185B8EE9C
:10234000C00A20EE200ABDEEC00A10EE100AB081CD
:1023500015B0F0BDBDF8421049BA01829AE70000FD
:10236000006400405C0B00201C00002018020020CC
:10237000140A00200068004040020020B00C002039
:1023800000007A3D704770477047000070B5044602
:1023900090F82000012804D0606A40F400206062B8
:1023A00018E0022084F820002068016821F0010173
:1023B000016000F013FB05460EE000BF00F00EFBCD
:1023C000401B0A2808D9606A40F40030606205208A
:1023D00084F82000012070BD20684068C007EDD15E
:1023E000606270BD704770477047704770477047B4
:1023F00070472DE9F0410446876D00F0EFFA06467C
:1024000094F835000025022806D08020606584F805
:1024100034500120BDE8F0812068016821F01601E8
:1024200001602068416921F080014161206C08B998
:10243000A06C20B12068016821F0080101602068CB
:10244000016821F0010101600BE000F0C7FA801B78
:10245000052806D92020606504F8345F03206070E9
:10246000D8E720680068C007EFD194F85C103F20DF
:102470008840B86004F8345F012060700020C9E72C
:1024800090F83510022903D0802141650120704762
:10249000052180F835100068016821F00101016014
:1024A000002070472DE9F84304464FF00009CDF8AD
:1024B000009063484FF41651A56D0068B0FBF1F72A
:1024C0002E6894F85C10082000FA01F131420FD018
:1024D00021680A6852070BD50A6822F004020A60D4
:1024E00094F85C108840A860606D40F00100606561
:1024F00094F85C104FF0010808FA01F0304208D05F
:1025000021684969090604D5A860606D40F00200A1
:10251000606594F85C1004208840304208D021683F
:102520000968890704D5A860606D40F00400606503
:1025300094F85C1010208840304218D02168096857
:10254000090714D5A86020680168490304D500680C
:10255000000308D5A16C07E00168C90503D4016830
:1025600021F008010160216C09B12046884794F8E8
:102570005C1020208840304231D021680968C906AB
:102580002DD5A86094F8350005282068016806D08C
:10259000490347D5006800031DD4616C1CE021F09D
:1025A000160101602068416921F080014161206CC1
:1025B00008B9A06C20B12068016821F00801016011
:1025C00094F85C103F208840A86084F8349084F828
:1025D0003580216D1FE0E16B09B120468847606DB1
:1025E00000282BD0606DC00714D0052084F835007A
:1025F0002068016821F0010101600098401C0090F2
:10260000B84203D820680068C007F6D184F8349037
:1026100084F83580E16C002910D001B02046BDE877
:10262000F04308470168C905D5D4016821F01001BD
:10263000016084F8349084F83580CCE7BDE8F883F5
:10264000180000202DE9F041044600F0C7F90646C5
:102650005CB1002584F83450022084F835002068ED
:10266000016821F0010101600DE00120BDE8F08169
:1026700000F0B4F9801B052805D9202060650320EF
:1026800084F83500F2E720680068C007F0D12268BE
:10269000116820480140D4E901031843D4E9033606
:1026A0003343184363691843A3691843E369184324
:1026B000236A18430843616A042903D1D4E90B1340
:1026C00019430843106020684069666A20F00701DA
:1026D00030460E43012704280CD1A06A0643E06A65
:1026E00040B12046FEF7EEFD20B14020606584F841
:1026F0003570BAE7206846612046FEF7CFFD94F8B2
:102700005C203F2191408160656584F83570002030
:10271000ACE700003F8010F070B5044690F834003C
:10272000002501280CD0012084F8340094F835608D
:102730000020012E06D084F834000225284670BD02
:10274000022070BD022684F8356060652046FEF7E1
:10275000E3FD2068016841F001010160EEE72DE929
:10276000F0410446866D90F83400002501280DD014
:10277000012084F8340094F835700020012F07D030
:1027800084F8340002252846BDE8F0810220FBE7EA
:10279000022784F8357060652046FEF7BDFD94F889
:1027A0005C103F208840B0602068016841F016014D
:1027B00001602068416941F080014161206C20B1D5
:1027C0002068016841F0080101602068016841F05B
:1027D00001010160D7E7000070B5044600F0FEF883
:1027E0000546601C02D004480078044400F0F6F866
:1027F000401BA042FAD370BD900100202DE9F84F94
:10280000DFF890B100224FF001084FF0030A4FF0BB
:102810000F090BF1040E00BF0B6808FA02F4234005
:10282000A3426ED14D68022D01D0122D0ED1D508D4
:1028300000EB850CDCF820505607F70E09FA07F676
:10284000B5430E69BE402E43CCF8206006685500A3
:102850000F790AFA05FC07F0030726EA0C06AF40D9
:10286000374307604E68012E05D0022E03D0112E8B
:1028700001D0122E0ED18768CE6827EA0C07AE4031
:102880003E4386604668A6430C79C4F30014944026
:1028900034434460C4688E6824EA0C04AE40264386
:1028A000C6604C68E4006FD53B4C256845F4804514
:1028B0002560246822F0030504F480440094374C1A
:1028C0002E19D6F8084895072F0F09FA07F5AC43DB
:1028D000334DA84201D100252EE0324DA84201D14E
:1028E000012529E0304DA84201D1022524E02F4DD9
:1028F000A84201D103251FE02D4DA84202D1042595
:102900001AE041E02B4DA84201D1052514E02A4DE3
:10291000A84201D106250FE0284DA84201D1072584
:102920000AE0274DA84201D1082505E0254DA8421F
:1029300001D1092500E00A25BD402543C6F8085805
:10294000DBF800405D464E689C43F60300D51C430F
:102950002C60DEF8004075464E689C43B60300D5F7
:102960001C432C600B4D08352C684E689C43F602C6
:1029700000D51C432C60074D0C352C684E689C43D9
:10298000B60200D51C432C60521C102AFFF444AF41
:10299000BDE8F88F003C014044380240003001405F
:1029A000000002400004024000080240000C024007
:1029B000001002400014024000180240001C0240B7
:1029C000002002400024024042694A4042617047B0
:1029D0000AB1816170470904FBE700000148806883
:1029E000704700009001002002488168027811447D
:1029F00081607047900100200B4810B5016841F4D8
:102A000000710160016841F480610160016841F476
:102A100080710160032000F08BF8002000F006F8C0
:102A200000F03EF8002010BD003C024010B5014609
:102A300088B00022362000F05BF8362000F04CF819
:102A400013480024016841F010010160006805A9E5
:102A500000F010000690684600F066FA00F084FA74
:102A60000C494000B0FBF1F10C480B4A491E0260D2
:102A700040F2E732C0E90324C0E9011401F083FA0F
:102A800010B1012008B010BD044801F098FAF9E730
:102A90004038024040420F0000100040A8080020CB
:102AA0000C4882B0016841F480410160006800F484
:102AB000804000900748001F016841F0805101608C
:102AC0000068002200F0805000900F21901E02B09C
:102AD00000F00EB84438024000F01F02012191407E
:102AE0004009800000F1E020C0F8001170470000AC
:102AF000F0B40E4B1B680C46C3F30223C3F1070569
:102B0000042D00D90425191D072901D2002300E056
:102B1000DB1E012606FA05F1491E214099409E4020
:102B2000761E16403143F0BC02F0B4BE0CED00E05E
:102B3000064900F0070208684FF6FF03184040EA14
:102B40000220034A10430860704700000CED00E0CB
:102B50000000FA052DE9F8431748016841F080515B
:102B600001600068154F00F08050012600903E641F
:102B7000FFF734FF05464FF47A78114C05E000BFAB
:102B8000FFF72CFF401B40450DD86068C003F7D508
:102B90007E64FFF723FF0546464607E0FFF71EFF6A
:102BA000401BB04202D90320BDE8F883606880036F
:102BB000F4D50020F8E700004038024000000E4243
:102BC000007000402DE9F84F04460068DFF804A2C9
:102BD000814F824DC1074FF001084FF0000601D12F
:102BE00080073CD5CAF86860FFF7F8FE814605E02B
:102BF000FFF7F4FEA0EB0900022878D8286800014E
:102C0000F6D42078C107764805D06168227A890118
:102C100041EA027101602178890711D50168626873
:102C2000237B9201C1F3027142EA036242EA01711D
:102C300001603868E16920F01F00491E08433860D0
:102C4000CAF86880FFF7CAFE814605E0FFF7C6FEB6
:102C5000A0EB090002284AD828680001F6D52068B0
:102C6000410701D400074CD5CAF87060FFF7B6FEE3
:102C7000814605E0FFF7B2FEA0EB0900022836D836
:102C80002868C0438000F5D520784107554814D501
:102C900001682269237D9201C1F3027142EA036255
:102CA00042EA017101603968226A6FF0FF0321F482
:102CB000F85103EB0222114339602178090710D53E
:102CC00001682269C1F30361920142EA0161227E37
:102CD00041EA027101603868616A20F440300843BB
:102CE0003860CAF87080FFF779FE074605E048E0D3
:102CF000FFF774FEC01B022843D82868C043800039
:102D0000F6D42078800653D534484030016841F02D
:102D1000805101600068344D00F0805000902868B8
:102D200040F480702860FFF759FE074605E000BFB9
:102D3000FFF754FEC01B022823D82868C005F7D52A
:102D4000274D143D286810F4407020D0218D01F4E7
:102D5000407181421BD02868244920F44070C1F89A
:102D600000800E6028602868C00710D0FFF736FE8C
:102D7000064641F2883707E0FFF730FE801BB84275
:102D800002D90320BDE8F88F28688007F4D5A16A2E
:102D90001248C1F301220830032A13D0016821F43C
:102DA000F81101602868218DC1F30B0108432860E8
:102DB0002078C00604D50E4994F82C00C1F8E00133
:102DC0000020DFE702680B4B22F4F81219400A4397
:102DD0000260E7E7000047428C38024000380240BA
:102DE000843802408838024000700040400E47425C
:102DF00000104742FFFCFF0F2DE9F0470E4605008B
:102E000065D0DFF81481D8F80000F7B200F00F00A9
:102E1000B04207D288F80070D8F8000000F00F0028
:102E2000B04254D128683D4C810712D5400703D5E4
:102E3000206840F4E05020602878000703D520681F
:102E400040F4604020602068A96820F0F00008434A
:102E500020602878C0072DD03049686808390128DB
:102E600012D0022813D0032811D00968890700293D
:102E70002DDA216821F0030101432160FFF7AEFD47
:102E8000814641F2883A0EE009688903EFE7096854
:102E90008901ECE7FFF7A2FDA0EB0901514502D93A
:102EA0000320BDE8F0872068696800F00C00B0EBF3
:102EB000810FEFD1D8F80010404601F00F01B14268
:102EC00007D90770006800F00F00B04201D0012060
:102ED000E7E72878400705D52068E96820F4E05046
:102EE000084320602878000706D52068296920F467
:102EF000604040EAC100206000F056F82168084AAE
:102F0000C1F30311515CC840064908600020FFF777
:102F10008DFD0020C5E70000003C0240083802405B
:102F2000D4AE0008180000200F2202600C4A13687B
:102F300003F003034360136803F0F0038360136836
:102F400003F4E053C36012684FF4E05303EAD20283
:102F500002610448006800F00F000860704700003C
:102F600008380240003C02400448054900680968EE
:102F7000044AC1F38221515CC84070471800002008
:102F800008380240E4AE00080448054900680968B2
:102F9000044AC1F34231515CC84070471800002018
:102FA00008380240E4AE0008154810B5006810F07B
:102FB0000C02144813D01449042A0FD0082A0ED149
:102FC0000F4C241F2268236802F03F025B0207D5E2
:102FD0002068C0F38810A0FB010106E0084610BD80
:102FE0002168C1F38811A1FB00010023FDF758F906
:102FF0002168C1F30141491C4900B0FBF1F010BD4B
:10300000083802400024F400001BB7002DE9F84FF7
:10301000050076D02878DFF8F8B2BE4CC00749D05A
:10302000DBF800105846C1F38101012908D000687F
:10303000C0F3810002280AD1201D0068400206D595
:103040002068800336D568680028E2D032E06868DE
:10305000B0F5803F10D0B0F5A02F206810D020F43C
:1030600080302060206820F4802020606868A0B153
:10307000FFF7B4FC06460CE0206840F48030F4E72B
:1030800040F480202060F7E7FFF7A8FC801B64284D
:1030900073D820688003F7D50CE0FFF79FFC064645
:1030A00005E000BFFFF79AFC801B6428F0D8206879
:1030B0008003F7D42878DFF8608280074FF000099A
:1030C0003ED5DBF80010584611F00C0F09D000680F
:1030D000C0F3810002280BD18D48001F0068400218
:1030E00006D42068800715D5E868012809D111E0C9
:1030F000E868B8B10120C8F80000FFF76FFC064689
:1031000005E002E1FFF76AFC801B0228C0D82068B6
:103110008007F7D52068296920F0F80040EAC1004F
:1031200020600DE0C8F80090FFF758FC064604E068
:10313000FFF754FC801B02281FD820688007F7D4B3
:103140002878000722D5724E744869696C3671B1CF
:1031500001210160FFF742FC074604E0FFF73EFC57
:10316000C01B022809D830688007F7D50EE0C0F8E8
:103170000090FFF733FC074605E083E0FFF72EFCE5
:10318000C01B02287ED830688007F7D42878400713
:1031900068D5DFF87CA100270AF1380ADAF80000C8
:1031A000C0000BD4DAF8001041F08051CAF80010CA
:1031B000DAF80000012700F080500090584E306887
:1031C000C00510D4306840F480703060FFF706FC12
:1031D000009005E0FFF702FC0099401A022851D840
:1031E0003068C005F6D54A4EA868683601280FD069
:1031F0000528306810D020F001003060306820F0E1
:1032000004003060A868B8B1FFF7E8FB00900FE059
:10321000306840F00100F4E740F004003060F7E768
:10322000FFF7DCFB0099411A41F28830814264D8F3
:1032300030688007F4D50EE0FFF7D0FB009007E080
:10324000FFF7CCFB0099411A41F28830814254D8F3
:1032500030688007F4D42FB1DAF8001021F08051E3
:10326000CAF80010A869C0B3DBF80010C1F38101EF
:1032700002294AD00228484607D0C8F86000FFF764
:10328000ADFB00E039E005463AE04746C8F860008B
:10329000FFF7A4FB064604E0FFF7A0FB801B022813
:1032A0002BD820688001F7D4D5E907010843A96A23
:1032B0001C4A490802EB01416A6A41EA821108434B
:1032C00095F82C1040EA01611148001F01600120AF
:1032D0003866FFF783FB054605E014E0FFF77EFB49
:1032E000401B022809D820688001F7D50BE000BFF9
:1032F000FFF774FB401B022802D90320BDE8F88FBA
:1033000020688001F4D40020F8E70120F6E70000EF
:10331000083802400038024000004742800E474211
:10332000007000400000FFFF2DE9F74F0446007FCA
:10333000934601281BD04FF0010884F81C8002201E
:1033400060772168CA204862206853214162206862
:1033500080684FF0000540054FF0FF064FF0030A6C
:103360004FF47A790FD5FFF739FB074607E00220C3
:10337000BDE8FE8FFFF732FBC01B484511D820681F
:10338000C0684007F6D42068816821F480618160BC
:10339000FFF724FB07460BE0FFF720FBC01B484567
:1033A00006D92068466284F81DA025770320DFE750
:1033B0002068C0684007EFD52068816821F00701C8
:1033C00081602068816841EA0B0181602168019871
:1033D00048612068816841F48061816020684662AC
:1033E00084F81D8025770020C2E7000070B5040036
:1033F00002D0607F10B106E0012070BD0020207770
:10340000204600F049F8022060772168CA2048620F
:10341000216853204862204602F05EFCFF25042606
:1034200018BB206881681B4A114081602168886848
:1034300062681043D4E904231A431043886021686A
:10344000E068086120680169228941EA024101615E
:103450002068C16821F08001C16020688068800612
:1034600007D4204600F000F918B12068456266775D
:10347000C2E72068016C21F4802101642068016C9E
:10348000A269114301642068456201206077002031
:1034900070BD0000BFFF8FFF00680349884202D162
:1034A0000249012008607047002800403C0E474256
:1034B0002DE9F0470446007F0B4601281FD04FF04E
:1034C000010984F81C9002206077DAB19878D978E5
:1034D00040EA014558781978000240EA4130054336
:1034E0002168CA204862216853204862204602F0C1
:1034F000F3FB0026FF274FF0040860BB1AE0022010
:10350000BDE8F0875878C10603D500F0EF000A3017
:103510005870D87802F0D5FB0204587802F0D1FB3D
:1035200042EA0022987802F0CCFB0243187842EA83
:103530004035D5E70F480540206845602068C168E0
:1035400021F08001C1602068806880060AD420468E
:1035500000F08AF830B12068476284F81D80267731
:103560000120CDE72068476284F81D90267700206F
:10357000C6E700003FFFFF002DE9F0470446007F4B
:103580000D46012811D04FF0010A84F81CA002203A
:1035900060772068002680684FEA406042B10028CA
:1035A0001ADA287802F084FB17E00220BDE8F087E1
:1035B000002800DBEE70287802F083FB02046878B4
:1035C00002F07FFB42EA0022A87802F07AFB024375
:1035D000E87842EA00470AE0EE70A878297840EAE5
:1035E00001476878E978000240EA01400743216812
:1035F000CA204862216853204862204602F06CFBD2
:103600004FF0FF084FF00409E0B916480740206862
:1036100007602068816821F480218160D5E9030179
:10362000084321688A68104388602068C16821F0D7
:103630008001C1602068806880060BD4204600F0BD
:1036400013F838B12168C1F8248084F81D902677DA
:103650000120ABE72168C1F8248084F81DA02677FB
:103660000020A3E77F7F7F0070B504460068C16833
:1036700021F0A001C160FFF7B1F905464FF47A7659
:1036800007E000BFFFF7AAF9401BB04201D90320B1
:1036900070BD2068C0688006F4D5002070BD7047FA
:1036A000FEB5044603200D4684F83400606C032800
:1036B00020D0B5F5805F1DD0B5F5006F05D045B1C0
:1036C000A06B40F00060A06309E0204602F091FF8B
:1036D00002E0204602F066FFA16B0143A163A06BEC
:1036E000012658B1216840F2FF50886384F83460A5
:1036F0000120FEBDA06B40F08050E4E7211DD4E91D
:1037000005700EC90095CDE90170206802F024FB18
:1037100084F834600020FEBD7047F0B5426E120E92
:1037200093090B70C2F383034B7002F003028A709B
:10373000426E120CCA70B0F86420120A0A7190F836
:1037400064204A71826E4FF6FF73120E03EA021272
:10375000CA80826ECB88C2F3074243EA1213CB8041
:1037600002F00F020A72B0F86820C2F30722D309F0
:103770004B72C2F380138B72C2F34013CB72C2F34D
:1037800000130B7300264E73446C4FF40077012333
:103790006CB1012C43D0026840F2FF519163816B00
:1037A00041F08051816380F834300120F0BD9207F0
:1037B000120D0A6190F868200C6944EA82020A61DD
:1037C000C26E0C69120E44EA92140C61C2F3C20478
:1037D0000C7502F007024A75C26EC2F30742540923
:1037E0008C75C2F38204CC759207520F0A76B0F83A
:1037F0006C20C2F307240A7E42EAD4120A760A69D0
:10380000521C42650D7EAD1CAA4042650D7A03FA3A
:1038100005F585656D0A6A43C0E917271CE090F835
:1038200068209206920A0A61C26E0C69120E44EA7E
:1038300002220A61C26E0C69C2F3074214430C6192
:10384000B0F86C20C2F307240A69521C4FEA8222A6
:103850004265C0E916720766C4F3801201F8192F99
:103860004FEA84624FEA52624A7010F86C2F4C782B
:1038700044EAD2144C7002F07F028A7042684FEA28
:1038800012624FEAD214CC70C2F341140C71C2F32D
:1038900082044C714FEA82724FEA12728A71426856
:1038A0008C79C2F3074244EA92148C71C2F340143B
:1038B000CC710E7202F001024A728288C2F30722B2
:1038C0004FEAD2148C72C2F38014CC72C2F340144B
:1038D0000C73C2F300144C73C2F381048C7302F0B6
:1038E0000302CA7300794FEA500008744B744FF01A
:1038F0000000F0BD70B50446B0F85000002501048A
:10390000206802F076FB18B1A16B0143A16304E0CB
:103910000021206802F013FA0546C5F3432070BD6C
:1039200070B504460068416B4FF00105CA0540F2CE
:103930003A3149D52A0282632068C26B8A43C26346
:10394000206B0007206B22D5800702D4206B8006F5
:1039500009D5206802F07EFB28B1A16B0143A16369
:103960002046FFF7D9FE216840F2FF50886384F8B3
:103970003450206BC00702D1206B800703D520464E
:1039800000F046F970BD204600F043F970BD000616
:10399000FCD5206B800609D5206802F05BFB28B1BE
:1039A000A16B0143A1632046FFF7B6FE206BC00761
:1039B000ECD1206B8007E9D42068C16A21F00801AE
:1039C000C16284F83450DEE7426B520410D54FF4E4
:1039D00080418163266A002506EB8501206802F09C
:1039E000E4F96D1C082DF7D3206A2030206270BDE9
:1039F000426B120410D54FF400418163A66A002582
:103A0000206802F0BFF946F825006D1C082DF7D399
:103A1000A06A2030A06270BD426B40F23A231A4285
:103A2000F9D0426B920703D5A26B42F00202A26367
:103A3000426B120703D5A26B42F00802A263426BED
:103A4000920603D5A26B42F02002A263426BD2061B
:103A500003D5A26B42F01002A263426B920503D51C
:103A6000A26B42F00802A26340F2FF7282632068F8
:103A7000C26B8A43C263206B000623D5206C58B109
:103A800015490165206CFEF7FBFC0028C3D0206CB3
:103A9000BDE8704002F034BCE06B58B10F490165DD
:103AA000E06BFEF7EDFC0028B5D0E06BBDE87040A0
:103AB00002F002BC0020A06384F834502046FFF7D7
:103AC000EEFD70BD206B0007FBD584F83450204616
:103AD000FFF722FE70BD000001630008B962000814
:103AE00070B5040004D094F83400002510B105E04E
:103AF000012070BD2577204600F038F8032084F8B7
:103B00003400204600F008F8A5632563012084F8FE
:103B10003400002070BD0000FEB50025044676206C
:103B20000095CDE901502B462A462946206802F02F
:103B300013F90D4E46F8A05F206802F01FF9012529
:103B400035600220FEF748FE204602F0DAFC20B97C
:103B5000204602F063FC002805D084F83450A16BA5
:103B60000143A1630120FEBD00802542F0B587B06E
:103B7000044614216846FCF7DDFB21492068884291
:103B80003BD120480024016841F4006101600068D5
:103B900000F4006005901B481438016841F00401EE
:103BA0000160016801F004010591016841F008011C
:103BB00001600068022500F0080005904FF4F850FD
:103BC000CDE9000502AA03260C2782E8D000694649
:103BD0000D48FEF713FE0420CDE9000502AA694650
:103BE00082E8D0000948FEF709FE002205213120B5
:103BF000FEF77EFF3120FEF76FFF07B0F0BD00003B
:103C0000002C01404438024000080240000C0240F1
:103C10007047704770B5040005D00025A56294F880
:103C2000510010B106E0012070BD84F850502046CC
:103C300000F030F8022084F851002068016821F07B
:103C400040010160D4E901010843D4E903121143A2
:103C5000084361690843218B01F400710843E1695D
:103C60000843216A0843A16A084321680860A069E3
:103C7000042101EA1040616A084321684860206815
:103C8000C16921F40061C1616565012084F85100BA
:103C9000002070BD10B586B0044614216846FCF7BC
:103CA00049FB14492068884221D113480021026849
:103CB00042F480120260006800F4801005900E4803
:103CC0001438026842F020020260006800F0200010
:103CD00005904FF4607000900220CDE901010320AF
:103CE00003900520049069460448FEF787FD06B05E
:103CF00010BD000000500140443802400014024052
:103D00002DE9F84F044690F8500000260A9F9A4685
:103D100093460D464FF0010801280ED0012084F88B
:103D20005000FEF75BFE814694F85100616801285F
:103D30000CD0B1F5827F07D102E00220BDE8F88FF8
:103D4000A16809B9042801D00226BDE055B1BBF134
:103D5000000F07D0BAF1000F04D094F851000128E9
:103D600002D004E00126AFE0052084F851000020D5
:103D70006065C4F838B0A4F83EA0A4F83CA0256360
:103D8000A4F836A0A4F834A0206460642068016818
:103D9000490603D4016841F040010160E068B0F5D4
:103DA000006F606804D0E8B3E08E01283BD06AE081
:103DB00010B1E08E01282ED1216835F8020BC860C1
:103DC000E08E401EE08626E0B8F1000F0DD0E08EB8
:103DD00058B120688168890707D535F8021BC16092
:103DE000E08E401EE0864FF00008E08F58B120685A
:103DF0008168C90707D0C0682BF8020BE08F401E0E
:103E0000E0874FF00108781C05D0FEF7E7FDA0EB36
:103E10000900B84246D2E08E0028D5D1E08F0028B4
:103E2000D2D136E0FFE7216815F8010B0873E08E68
:103E3000401EE08627E000BFB8F1000F0DD0E08EF5
:103E400058B120688168890707D515F8011B0173EF
:103E5000E08E401EE0864FF00008E08F58B12068E9
:103E60008168C90707D0C0680BF8010BE08F401EBE
:103E7000E0874FF00108781C05D0FEF7AFFDA0EBFE
:103E80000900B8420ED2E08E0028D5D1E08F00287C
:103E9000D2D13B46012202212046CDF8009002F00B
:103EA000DFFB08B103260FE04A463946204602F000
:103EB000C7FB18B101262020606505E0A06818B98D
:103EC0002068C16880680090012084F851000020BB
:103ED00084F85000304631E77047704710B590F8CD
:103EE0003820012A25D0012280F83820CA688C6841
:103EF00022F4407222434C6822F4806222430C6810
:103F000022F4006222430C6922F4805222434C695D
:103F100022F4005222438C6922F48042224322F48C
:103F20000041026800232143516480F838300020AA
:103F300010BD022010BD30B590F83820012A20D0E5
:103F4000012280F83820022380F8393003685C6849
:103F500024F070045C6003685C680D682C435C604E
:103F600003689C6824F080049C6003689C6849682E
:103F70000C439C6080F83920002180F838100846F6
:103F800030BD022030BD10B5040003D094F83900D4
:103F900010B107E0012010BD002084F83800204651
:103FA00000F00CF8022084F83900211D206802F08E
:103FB00003FF012084F83900002010BD704701681C
:103FC000CA6842F00102CA600068016841F001015C
:103FD000016000207047704770B5044600680169B1
:103FE0004FF00005C943890715D4C168C943890743
:103FF00011D4E91E016101202076206880698007C4
:10400000204602D0FFF7E7FF04E000F071F92046F8
:1040100000F050FA257620680169C943490717D492
:10402000C168C943490713D46FF00401016102203C
:1040300020762068806910F4407F204602D0FFF788
:10404000CAFF04E000F054F9204600F033FA257668
:1040500020680169C943090716D4C168C943090723
:1040600012D46FF008010161042020762068C06935
:104070008007204602D0FFF7AEFF04E000F038F9D9
:10408000204600F017FA257620680169C943C90661
:1040900017D4C168C943C90613D46FF01001016178
:1040A000082020762068C06910F4407F204602D0A6
:1040B000FFF791FF04E000F01BF9204600F0FAF949
:1040C000257620680169C943C90708D1C168C94379
:1040D000C90704D1891E0161204600F009FA206851
:1040E0000169C943090609D4C168C943090605D451
:1040F0006FF0800101612046FFF7EEFE2068016944
:10410000C943490609D4C168C943490605D46FF0BB
:1041100040010161204600F0F5F920680169C943BA
:1041200089060BD4C168C943890607D46FF0200102
:1041300001612046BDE87040FFF7CFBE70BD0000B2
:10414000F0B587B0044614216846FCF7F3F85B4BE2
:10415000226800245A49022501265A489A4221D150
:104160000A6842F001020A600A6802F00102059240
:104170000A6842F010020A60096801F01001059116
:104180004FF440710091CDE90154CDE903466946F1
:10419000FEF734FB4FF4C0400090CDE9015469466E
:1041A000494821E0B2F1804F11D04848824221D1E4
:1041B000086840F0020008600868694600F00200E4
:1041C000059030200090CDE90154414849E00A684B
:1041D00042F001020A60096801F0010105910F2116
:1041E0000091CDE901546946CDE90346FEF706FB8F
:1041F00007B0F0BD374882420FD1086840F0080090
:1042000008600868694600F0080005904FF47040A7
:104210000090CDE90154304823E0304B3048314F15
:104220009A4221D10A6842F480720A600A6802F454
:10423000807205920A6842F080020A60096800965E
:10424000CDE9015401F08001CDE9045103946946A0
:10425000FEF7D4FA4FF4E0500090CDE901546946DE
:104260003846CDE90345C1E71F4B9A4210D10A6891
:1042700042F480720A60096801F480710591E421BA
:104280000091CDE901540321CDE903416946ADE731
:1042900016488242ACD1086840F080000860086887
:1042A000694600F0800005904FF410700090CDE951
:1042B00001540920CDE90340384697E7000001404A
:1042C000303802400000024000100240000400406C
:1042D0000004024000080040000C0240000C0040B6
:1042E00000200240001C0240000401400018004071
:1042F000704770B5044690F838000D4601280DD07F
:10430000012684F83860022084F8390042B1042A7A
:1043100018D0082A2AD00C2A4DD139E0022070BDCD
:10432000206802F0B5FD2068816941F008018161D3
:104330002068816921F004018161206881692A690E
:10434000114311E0206802F0CFFD2068816941F43B
:10435000006181612068816921F480618161206848
:1043600081692A6941EA0221816124E0206802F022
:10437000EDFD2068C16941F00801C1612068C16993
:1043800021F00401C1612068C1692A69114311E06B
:10439000206802F00BFE2068C16941F40061C16130
:1043A0002068C16921F48061C1612068C1692A69FE
:1043B00041EA0221C16184F83960002084F83800A4
:1043C00070BD10B5040003D094F8390010B107E0B7
:1043D000012010BD002084F83800204600F00CF8C1
:1043E000022084F83900211D206802F0E5FC01203C
:1043F00084F83900002010BD08B501682648274A16
:10440000814205D1106840F001001060106812E090
:104410002248001FB1F1804F08D0214B99420ED1A4
:10442000016841F002010160006826E0016841F086
:1044300001010160006800F00100009008BD194B07
:10444000994207D1016841F004010160006800F061
:104450000400F2E7144B994207D1016841F00801CA
:104460000160006800F00800E7E7104B994207D1AF
:10447000106840F002001060106800F00200DCE7F5
:104480000B4A9142DAD1016841F0400101600068B5
:1044900000F04000D1E70000000001404438024035
:1044A0000004004000080040000C004000040140EF
:1044B000001800407047000010B504460068012253
:1044C00002F0DAFC08492068884202D00749884295
:1044D00003D1416C41F4004141642068016841F01E
:1044E00001010160002010BD0000014000040140F6
:1044F00000680349884201D1FEF776BA7047000090
:1045000000100040704710B504460068416994F8F7
:104510003920C1F3C011212A0BD151B1416921F0D9
:1045200080014161206B08B1FDF763FF204602F076
:10453000F9FD2068416994F83A20C1F38011222ADC
:104540000BD151B1416921F040014161606B08B16B
:10455000FDF74FFF204602F0D7FD002010BD08B543
:10456000C16B082903D1006801684068009008BD4C
:1045700070B5026804461068D168536910F00F0FD7
:1045800051D003F0010501F4907635435DD0C207A8
:1045900005D0CA0503D5E26B42F00102E26342078F
:1045A00005D5DA0703D0E26B42F00202E26382072C
:1045B00005D5DA0703D0E26B42F00402E26302079A
:1045C00005D5DA0703D0E26B42F00802E263E26B42
:1045D000002A34D0800604D5880602D5204602F091
:1045E000AAFD20684069E16BC0F3801001F008016A
:1045F0000143204624D002F087FD20684169490626
:104600001AD5416921F040014161606BA0B11B499D
:104610000165606BFDF734FF002810D0606B016D01
:10462000BDE87040084783060FD58B060DD52046A0
:10463000BDE8704002F07FBD2046FFF790FF70BDDF
:10464000FFF78DFF0020E06370BD030606D50B0663
:1046500004D52046BDE8704002F00ABF4006F3D5FD
:104660004806F1D5D168204621F04001D1602021D3
:1046700084F8391000F04BFA70BD00006970000832
:1046800070B5040004D094F83900002510B106E09C
:10469000012070BD84F83850204600F023F8242013
:1046A00084F839002068C16821F40051C1602046B7
:1046B00002F088FD2068016921F4904101612068C1
:1046C000416921F02A0141612068C16841F400512B
:1046D000C160E563202084F8390084F83A000020A6
:1046E00070BD00002DE9F04F87B0054614216846E3
:1046F000FBF720FEB348DFF8C88214380221D5F852
:1047000000C0DFF8C0E2012203238F060024061553
:104710004FF00709C44540D1DEF8008048F010088A
:10472000CEF80080DEF800C00CF0100CCDF814C0FC
:10473000D0F800C04CF0020CC0F800C0006800F0D7
:1047400002000590C0208DE80F0269469E48FEF7E2
:1047500055F8DFF87C829D494046C8F80010C0E952
:104760000174C0E90346C8F81440C8F81840C8F8F6
:104770001C40C8F82040C8F82440FDF763FF08B18A
:10478000FDF723F8C5F83480002205212520C8F85C
:104790003850FEF7ADF9252062E0DFF83882DFF807
:1047A00024B24FF0400AABF1040BC4455DD1DBF8F5
:1047B0000080002448F40038CBF80080DBF800C00B
:1047C0000CF4003CCDF814C0D0F800C04CF0080C3C
:1047D000C0F800C0006800F00800059060208DE877
:1047E0000F0269467C48FEF709F8DFF8E4817B494F
:1047F00008F160084046C8F80010C0E90174C0E93B
:104800000346C8F81440C8F81840C8F81C40C8F857
:104810002040C8F82440FDF715FF08B1FCF7D5FF8C
:104820006B4C6E48C5F83480C0341830C8F8385026
:1048300084E881040020C4E903066061A061E061AE
:10484000206260622046FDF7FDFE08B1FCF7BDFF67
:104850002C63002205212620A563FEF749F92620B6
:10486000FEF73AF907B0BDE8F08FDFF87481C44570
:1048700052D1DBF8008048F48028CBF80080DBF8C8
:1048800000C00CF4802CCDF814C0D0F800C04CF05F
:10489000080CC0F800C0006800F0080005904FF454
:1048A00040708DE80F0269464B48FDF7A7FF4B4962
:1048B000DFF8309160394846C9F80010C0E901744A
:1048C000C0E90346C9F81440C9F81840C9F81C40AB
:1048D000C9F82040B846C9F82440FDF7B3FE08B136
:1048E000FCF773FF3F4FC5F834906037C9F8385074
:1048F000C7E903467C61BC613848FC613C623038E2
:104900007C6287E801053846FDF79CFE08B1FCF79C
:104910005CFF2F63BD63A5E7334FBC45A2D1DEF832
:1049200000C04CF0200CCEF800C0DEF8007007F09C
:1049300020070597076847F040070760006800F008
:10494000400005904FF484408DE80F00082004904B
:1049500069462648FDF752FF224F1C48C0371838D9
:1049600038604FF02068C7E90184C7E903467C61DD
:10497000BC61FC613C6238467C62FDF763FE08B1B5
:10498000FCF723FF6F63BD63194F1048C7E9034667
:104990007C61BC61FC613C6260307C6287E801053F
:1049A0003846FDF74FFE08B1FCF70FFF2F630022DA
:1049B00005214720BD63FEF79BF8472050E7000024
:1049C00000100140443802400004024040640240AC
:1049D0000806002000440040000C024088600240AD
:1049E0000048004028070020001401400018024041
:1049F00048080020F8B5044690F83A0020283CD139
:104A0000C1B3BAB394F83800012836D0012084F835
:104A10003800A162A2850025E563222084F83A00CF
:104A2000636B1748D863636B16481864636B16484A
:104A3000D864606B134605650846666B21680246BC
:104A40003046091DFDF78BFE206801684168009122
:104A500084F83850C16841F48071C16020684169B0
:104A600041F0010141612068416941F0400141612B
:104A70000020F8BDFFE70120FBE70220F9E7000076
:104A8000C3700008FF7000087970000890F83A3091
:104A9000202B1DD1D1B1CAB190F83830012B17D0DD
:104AA00081628285C2850021C163222280F83A207A
:104AB00080F8381001684A6942F001024A610068D2
:104AC000C16841F49071C1600020704701207047B7
:104AD0000220704708B50068094988420FD109488B
:104AE0000078FCF729FE08480068016840680090DB
:104AF000BDE80840012203490348FFF7C7BF08BDCE
:104B000000440040480900204805002070477047D5
:104B1000FEE700007FB50E2269463B2000F042F917
:104B2000BDF800009FED1E1A41BA1C48A0F1140404
:104B30000180BDF8021049BA4180BDF8041049BA9D
:104B40008180BDF8061049BA00EE101AB8EE400A8E
:104B5000C0EE010AB3EE050A30EE800ABDEEC00ACF
:104B600010EE101AC180BDF808104ABA2281BDF8B3
:104B70000A1049BA6181BDF80C305BBAA3812834B0
:104B80002589521B02816289891A4181A189591A9A
:104B9000818105F0A9FA05F0C7FA7FBDEC09002074
:104BA0005CEFA64310B5774C2DED0C8BB8EE009A58
:104BB000F0EE008AB7EE00BAD4ED029A94ED038AC3
:104BC00029EE890A68EE280A20EE290A00EEC80AB2
:104BD00030EE0B0A10EE100AFBF74FFD94ED010AC0
:104BE000D4ED000A41EC1A0B20EE280A60EEA80A68
:104BF00020EE290A00EE880A10EE100AFBF73DFDB0
:104C000041EC100BB0EE4A1AF0EE6A1A03F0D8F835
:104C10009FED5DAB51EC100B53EC1A2BFBF73CFCFA
:104C2000FBF73EFD08EE100A594984ED098A94ED20
:104C3000080A38EE400A10EE100A884202DDE069E8
:104C4000401EE06110EE100A5249884202D9E06924
:104C5000401CE06184ED088A9FED4FDB2069E0B9DC
:104C6000E069FBF7A1FC53EC1D2BFBF715FC41ECB5
:104C70001C0B18EE100AFBF700FD53EC1C2BFBF786
:104C800064FBFBF70DFDA062E06A40F2DC51401CC2
:104C9000E062884201DD01202061A06AFBF7EDFCA3
:104CA00041EC1C0BE069FBF77FFC53EC1D2BFBF781
:104CB000F3FB41EC1D0B18EE100AFBF7DEFC53EC86
:104CC0001D2BFBF742FB53EC1C2BFBF7DFFBFBF729
:104CD000E7FC3349486494ED018A28EE090A60EE46
:104CE000080A94ED020A60EE289A49EEC00A30EEF6
:104CF0008B0A10EE100AFBF7C0FC94ED030AD4ED0A
:104D0000000A41EC1B0B29EE800A60EEA80A00EEB7
:104D1000880A10EE100AFBF7B0FC41EC100BB0EE65
:104D20004B1AF0EE6B1A03F04BF853EC1A2B51ECC4
:104D3000100BFBF7B1FBFBF7B3FCE06694ED010A47
:104D4000D4ED030A94ED021A20EE090A20EE200A9F
:104D5000D4ED000A60EEA80A00EE810A10EE100AF7
:104D6000FBF78BFC41EC100B02F00EFD53EC1A2B01
:104D700051EC100BFBF790FBFBF792FCA066BDEC2F
:104D80000C8B10BD340000206666666666A64C403B
:104D90000000A5430000A5C300000000008076408D
:104DA0005C0B0020F8B5134F15460E460446002252
:104DB00040213846FDF70CFE0F4944F080003724AF
:104DC0004871891D8A1E08700123491E0B480094F2
:104DD000FEF796FF08492B463246891D0748009486
:104DE000FEF78EFF012240213846FDF7F1FD00203D
:104DF000F8BD000000140240A80000200C030020B1
:104E00000F4810B50D4901600521416000214FF4A4
:104E100000328160C0E90312520142610176012231
:104E200042768176C17601774177FDF7ADF80028AB
:104E300003D0BDE81040FCF7C8BC10BD00640040C2
:104E400018020020104810B50E490160052141608C
:104E500000214FF04072C0E902124FF400320261AB
:104E6000520142610176012242768176C176017754
:104E70004177FDF789F8002803D0BDE81040FCF722
:104E8000A4BC10BD0068004040020020254808B5C1
:104E9000016841F480010160016801F48001009122
:104EA000016841F4001101600068002200F4001064
:104EB000009005210C20FDF71BFE0C20FDF70CFED9
:104EC000002205210E20FDF713FE0E20FDF704FE43
:104ED000002205211020FDF70BFE1020FDF7FCFD40
:104EE000002205211120FDF703FE1120FDF7F4FD3E
:104EF000002205213920FDF7FBFD3920FDF7ECFDEF
:104F0000002205213A20FDF7F3FD3A20FDF7E4FDEC
:104F1000002205214520FDF7EBFDBDE808404520B6
:104F2000FDF7DABD3038024010B59AB014221C49A2
:104F30006846FBF7E6F90021684604F005FC194CC9
:104F4000174914222060143105A8FBF7DAF9002173
:104F500005A804F0F9FB12496060142228310AA860
:104F6000FBF7CFF900210AA804F0EEFB0C49A06082
:104F700014223C310FA8FBF7C4F900210FA804F05C
:104F8000E3FB0749E0601422503114A8FBF7B9F99C
:104F9000002114A804F0D8FB20611AB010BD000055
:104FA00070AE0008040000202DE9F04F87B01421F6
:104FB0006846FBF7BFF95D480024016841F0100125
:104FC0000160016801F010010591016841F00201E2
:104FD0000160016801F002010591016841F04001A2
:104FE0000160016801F040010591016841F0040190
:104FF0000160016801F004010591016841F00101BF
:105000000160016801F001010591016841F00801AA
:105010000160016801F008010591016841F48071A7
:105020000160016801F480710591016841F080011F
:105030000160016801F080010591016841F02001E3
:1050400001600068DFF8E8B000F020000590002261
:1050500084215846FDF7BCFCDFF8D890002242F2CC
:10506000FE114846FDF7B4FCDFF8CC8001223C215C
:105070004046FDF7ADFCDFF8C4A044F24007002233
:1050800039465046FDF7A4FC842000900125CDE967
:105090000154694658460394FDF7B0FB02262848A0
:1050A0000096CDE9010469465846FDF7A7FB680361
:1050B0000090CDE90154694648460394FDF79EFBF4
:1050C0006802CDE9000469461E480294FDF796FB8C
:1050D0003C20CDE90005CDE9025669464046FDF782
:1050E0008DFB4FF4FF70CDE90005CDE9024669461E
:1050F0004846FDF783FB0097CDE9015469465046C9
:105100000394FDF77BFBA802CDE9000469460E4835
:105110000294FDF773FBE803CDE9000469465846A5
:105120000294FDF76BFB07B0BDE8F08F303802400A
:105130000010024000180240001C0240001402400F
:105140000000111000200240000C024010B586B093
:1051500014216846FBF7EEF81F4800241D4905940A
:10516000C0E900147F218160FF21C0E9031444617C
:105170008461FEF73BF908B1FCF727FB8DF800408E
:105180008DF801408DF802400394012269461248CF
:105190000494FEF7F1F908B1FCF717FB01208DF834
:1051A00014008DF815008DF8160002468DF8174092
:1051B00005A90948FEF77CF908B1FCF706FB0022B7
:1051C00011460548FEF7B0F8002801D0FCF7FDFABB
:1051D00006B010BD00280040680200200E4810B53F
:1051E0000C490160002141608160C1600161416141
:1051F0008161FEF775FC08B1FCF7E7FA4FF4006136
:105200000548FEF74DFA002803D0BDE81040FCF732
:10521000DCBA10BD002C014088020020104810B5F7
:105220000E4901604FF48271416000218160C160CC
:105230004FF400720161C0E905123022C0E9072174
:10524000416281620A21C162FEF7E4FC002803D0BA
:10525000BDE81040FCF7B9BA10BD00000050014095
:105260000C03002010B588B01C216846FBF762F8DB
:1052700016481549002401605921C0E9011440F67F
:10528000C311C0E90314FFF79CF808B1FCF79DFABD
:10529000602000904FF47A70CDE901040022694645
:1052A0000A480494FFF725F808B1FCF78EFA0422A7
:1052B00069460648FFF71DF808B1FCF786FA03486F
:1052C000FEF73EFF08B010BD00180040CC040020DF
:1052D00010B590B000240E941C2168460F94FBF783
:1052E00029F81C2107A8FBF725F82D482B49016058
:1052F000B321C0E9011440F6C311C0E903144461AD
:10530000FFF75FF808B1FCF760FA0E940EA9244885
:105310000F94FEF710FE08B1FCF757FA60200090DA
:105320004FF47A70CDE901040394049405940022AB
:1053300069461B480694FEF7DCFF08B1FCF745FA06
:10534000042269461648FEF7D4FF08B1FCF73DFA7F
:10535000082269461248FEF7CCFF08B1FCF735FA7F
:105360000C2269460E48FEF7C4FF08B1FCF72DFA7F
:105370000794089409944FF400500A94CDE90B4027
:1053800007A907480D94FEF7A9FD08B1FCF71DFA1F
:105390000348FEF7D5FE10B010BD0000000001402C
:1053A0006403002010B58AB0002407941C216846CD
:1053B0000894FAF7BFFF22484FF08041016059215D
:1053C000C0E9011440F6C311C0E90314FEF7F9FF68
:1053D00008B1FCF7FAF9079407A919480894FEF7F1
:1053E000AAFD08B1FCF7F1F9602000904FF47A7043
:1053F000CDE901040022694611480494FEF779FFC3
:1054000008B1FCF7E2F9042269460D48FEF771FF86
:1054100008B1FCF7DAF9082269460948FEF769FF86
:1054200008B1FCF7D2F90C2269460548FEF761FF86
:1054300008B1FCF7CAF90248FEF782FE0AB010BDB7
:10544000A003002010B58AB0002407941C216846F0
:105450000894FAF76FFF1948174901605921C0E90C
:105460000114C4600461FEF7ACFF08B1FCF7ADF9AC
:10547000079407A911480894FEF75DFD08B1FCF7F1
:10548000A4F96020CDE900040294002269460B488B
:105490000494FEF72EFF08B1FCF797F90422694641
:1054A0000648FEF726FF08B1FCF78FF90348FEF720
:1054B00047FE0AB010BD000000040040DC030020DD
:1054C00010B58AB0002407941C2168460894FAF7A6
:1054D00031FF2348214901605921C0E9011440F6F8
:1054E000C311C0E90314FEF76CFF08B1FCF76DF9B6
:1054F000079407A91A480894FEF71DFD08B1FCF7A8
:1055000064F9602000904FF47A70CDE90104002224
:10551000694613480494FEF7ECFE08B1FCF755F910
:10552000042269460E48FEF7E4FE08B1FCF74DF987
:10553000082269460A48FEF7DCFE08B1FCF745F987
:105540000C2269460648FEF7D4FE08B1FCF73DF987
:105550000348FEF7F5FD0AB010BD0000000800404A
:105560001804002010B58AB0002407941C21684656
:105570000894FAF7DFFE2348214901605921C0E968
:10558000011440F6C311C0E90314FEF71AFF08B175
:10559000FCF71BF9079407A91A480894FEF7CBFCFF
:1055A00008B1FCF712F9602000904FF47A70CDE951
:1055B00001040022694613480494FEF79AFE08B1DC
:1055C000FCF703F9042269460E48FEF792FE08B183
:1055D000FCF7FBF8082269460A48FEF78AFE08B184
:1055E000FCF7F3F80C2269460648FEF782FE08B184
:1055F000FCF7EBF80348FEF7A3FD0AB010BD00006E
:10560000000C00405404002010B590B000240E940B
:105610001C2168460F94FAF78DFE1C2107A8FAF7A3
:1056200089FE2D482B490160B321C0E9011440F6E1
:10563000C311C0E903144461FEF7C3FE08B1FCF7CF
:10564000C4F80E940EA924480F94FEF774FC08B118
:10565000FCF7BBF8602000904FF47A70CDE90104AC
:10566000039404940594002269461B480694FEF7AF
:1056700040FE08B1FCF7A9F8042269461648FEF777
:1056800038FE08B1FCF7A1F8082269461248FEF777
:1056900030FE08B1FCF799F80C2269460E48FEF777
:1056A00028FE08B1FCF791F80794089409944FF488
:1056B00000500A94CDE90B4007A907480D94FEF766
:1056C0000DFC08B1FCF781F80348FEF739FD10B076
:1056D00010BD000000040140900400200D4810B5EA
:1056E0000B4901600C49416000214FF480628160E8
:1056F000C0E903120C22C0E90521C161FEF7C0FF19
:10570000002803D0BDE81040FCF75FB810BD0000D2
:105710000010014008050020A08601000C4810B5CB
:105720000A4901604FF4E1314160002181600C229F
:10573000C160C0E904128161C161FEF7A1FF0028C8
:1057400003D0BDE81040FCF740B810BD0044004055
:10575000480500200C4810B50A4901604FF4E131BA
:105760004160002181600C22C160C0E904128161A6
:10577000C161FEF785FF002803D0BDE81040FCF7AB
:1057800024B810BD00480040880500200C4810B522
:105790000A4901604FF461214160002181600C22BF
:1057A000C160C0E904128161C161FEF769FF002890
:1057B00003D0BDE81040FCF708B810BD001401404C
:1057C000C80500203FB5304AB2F90030B2F90210E6
:1057D000B2F904005C18251800955D1A0544C91A31
:1057E0000144001BCDE902100023019519466C46C7
:1057F00054F823000028054600DA6D428D4203DD8F
:10580000002800DA404201465B1C042BF0DBB1F5B6
:10581000FA5F30DD00EE101A9FED1C1AF8EEC00A98
:1058200081EE200ADDED000AF8EEE00A60EE800A63
:10583000FDEEE00AC2ED050ADDED010AF8EEE00A30
:1058400060EE800AFDEEE00AC2ED060ADDED020A16
:10585000F8EEE00A60EE800AFDEEE00AC2ED070A0B
:10586000DDED030AF8EEE00A20EE800ABDEEC00A84
:1058700082ED080A3FBD009850610198906102983E
:10588000D061039810623FBD140A00200000FA4561
:10589000FEE770470907090E002806DA00F00F003E
:1058A00000F1E02080F8141D704700F1E02080F83E
:1058B0000014704790ED060A80ED030AD0ED040A4B
:1058C00070EE800AC0ED040A90ED071A70EE411ADE
:1058D000C0ED051A80ED070A90ED081AF4EEC10A32
:1058E000F1EE10FA06DCB1EE411AF4EEC10AF1EE67
:1058F00010FA01D280ED041AD0ED000A90ED041ADE
:1059000020EE800AD0ED010A00EE810AD0ED020AF5
:1059100000EEA10A80ED0A0AD0ED090AB4EEE00A11
:10592000F1EE10FA06DCF1EE600AB4EEE00AF1EEF8
:1059300010FA01D2C0ED0A0A7047000010B500212C
:105940000448FEF7B9FDBDE8104000210248FEF70B
:10595000B3BD0000640300201804002070B5404867
:10596000404D2DED028BB0EE408A0068A5F12C046D
:10597000012847D13C4890ED000B51EC100BFAF791
:105980008FFE2860394890ED000B51EC100BFAF7B0
:1059900087FE6860364890ED000B51EC100BFAF76B
:1059A0007FFEA8609FED330A334885ED080A90ED2D
:1059B000000B51EC100BFAF773FE68622F4890ED64
:1059C000000B51EC100BFAF76BFE20602C4890EDA9
:1059D000000B51EC100BFAF763FE6060294890ED64
:1059E000000B51EC100BFAF75BFEA0609FED260A4E
:1059F000264884ED080A90ED000B51EC100BFAF7E5
:105A00004FFE6062174EDFED220ACC3E154896ED40
:105A1000080AB8EEC00A38EE400A20EE200A85EDEA
:105A2000060AFFF747FFB6F92800D5ED0A0A00EE8F
:105A3000100A06F1A000B8EEC00A30EEC00A84EDEC
:105A4000060AFFF737FF94ED0A0AB1EE400ABDEEF1
:105A5000C00A10EE100A7086BDEC028B70BD00000B
:105A6000D4000020280C0020200100202801002064
:105A7000300100200000000038010020400100201B
:105A8000480100205001002000803B4558010020C3
:105A90000000343D2DE9F04F484C87B004F114016B
:105AA000206A00900EC946A001F030FEB4F9100043
:105AB0000090B4F90E30B4F90C20B4F90A1047A0E4
:105AC00001F024FE4B48428801884BA001F01EFEE5
:105AD000B4F90430B4F90220B4F900104AA001F07E
